{
  "_format": "hh-sol-artifact-1",
  "contractName": "LandLordToken",
  "sourceName": "contracts/LandLordToken.sol",
  "abi": [
    {
      "inputs": [],
      "stateMutability": "nonpayable",
      "type": "constructor"
    },
    {
      "inputs": [],
      "name": "ECDSAInvalidSignature",
      "type": "error"
    },
    {
      "inputs": [
        {
          "internalType": "uint256",
          "name": "length",
          "type": "uint256"
        }
      ],
      "name": "ECDSAInvalidSignatureLength",
      "type": "error"
    },
    {
      "inputs": [
        {
          "internalType": "bytes32",
          "name": "s",
          "type": "bytes32"
        }
      ],
      "name": "ECDSAInvalidSignatureS",
      "type": "error"
    },
    {
      "inputs": [
        {
          "internalType": "address",
          "name": "spender",
          "type": "address"
        },
        {
          "internalType": "uint256",
          "name": "allowance",
          "type": "uint256"
        },
        {
          "internalType": "uint256",
          "name": "needed",
          "type": "uint256"
        }
      ],
      "name": "ERC20InsufficientAllowance",
      "type": "error"
    },
    {
      "inputs": [
        {
          "internalType": "address",
          "name": "sender",
          "type": "address"
        },
        {
          "internalType": "uint256",
          "name": "balance",
          "type": "uint256"
        },
        {
          "internalType": "uint256",
          "name": "needed",
          "type": "uint256"
        }
      ],
      "name": "ERC20InsufficientBalance",
      "type": "error"
    },
    {
      "inputs": [
        {
          "internalType": "address",
          "name": "approver",
          "type": "address"
        }
      ],
      "name": "ERC20InvalidApprover",
      "type": "error"
    },
    {
      "inputs": [
        {
          "internalType": "address",
          "name": "receiver",
          "type": "address"
        }
      ],
      "name": "ERC20InvalidReceiver",
      "type": "error"
    },
    {
      "inputs": [
        {
          "internalType": "address",
          "name": "sender",
          "type": "address"
        }
      ],
      "name": "ERC20InvalidSender",
      "type": "error"
    },
    {
      "inputs": [
        {
          "internalType": "address",
          "name": "spender",
          "type": "address"
        }
      ],
      "name": "ERC20InvalidSpender",
      "type": "error"
    },
    {
      "inputs": [
        {
          "internalType": "address",
          "name": "owner",
          "type": "address"
        }
      ],
      "name": "OwnableInvalidOwner",
      "type": "error"
    },
    {
      "inputs": [
        {
          "internalType": "address",
          "name": "account",
          "type": "address"
        }
      ],
      "name": "OwnableUnauthorizedAccount",
      "type": "error"
    },
    {
      "inputs": [],
      "name": "ReentrancyGuardReentrantCall",
      "type": "error"
    },
    {
      "anonymous": false,
      "inputs": [
        {
          "indexed": true,
          "internalType": "address",
          "name": "owner",
          "type": "address"
        },
        {
          "indexed": true,
          "internalType": "address",
          "name": "spender",
          "type": "address"
        },
        {
          "indexed": false,
          "internalType": "uint256",
          "name": "value",
          "type": "uint256"
        }
      ],
      "name": "Approval",
      "type": "event"
    },
    {
      "anonymous": false,
      "inputs": [
        {
          "indexed": true,
          "internalType": "address",
          "name": "previousOwner",
          "type": "address"
        },
        {
          "indexed": true,
          "internalType": "address",
          "name": "newOwner",
          "type": "address"
        }
      ],
      "name": "OwnershipTransferred",
      "type": "event"
    },
    {
      "anonymous": false,
      "inputs": [
        {
          "indexed": true,
          "internalType": "address",
          "name": "user",
          "type": "address"
        },
        {
          "indexed": true,
          "internalType": "uint256",
          "name": "distributionId",
          "type": "uint256"
        },
        {
          "indexed": false,
          "internalType": "uint256",
          "name": "amount",
          "type": "uint256"
        }
      ],
      "name": "ProfitClaimed",
      "type": "event"
    },
    {
      "anonymous": false,
      "inputs": [
        {
          "indexed": true,
          "internalType": "uint256",
          "name": "distributionId",
          "type": "uint256"
        },
        {
          "indexed": false,
          "internalType": "uint256",
          "name": "amount",
          "type": "uint256"
        },
        {
          "indexed": false,
          "internalType": "uint256",
          "name": "date",
          "type": "uint256"
        }
      ],
      "name": "ProfitDistributed",
      "type": "event"
    },
    {
      "anonymous": false,
      "inputs": [
        {
          "indexed": true,
          "internalType": "address",
          "name": "from",
          "type": "address"
        },
        {
          "indexed": true,
          "internalType": "address",
          "name": "to",
          "type": "address"
        },
        {
          "indexed": false,
          "internalType": "uint256",
          "name": "value",
          "type": "uint256"
        }
      ],
      "name": "Transfer",
      "type": "event"
    },
    {
      "inputs": [
        {
          "internalType": "address",
          "name": "owner",
          "type": "address"
        },
        {
          "internalType": "address",
          "name": "spender",
          "type": "address"
        }
      ],
      "name": "allowance",
      "outputs": [
        {
          "internalType": "uint256",
          "name": "",
          "type": "uint256"
        }
      ],
      "stateMutability": "view",
      "type": "function"
    },
    {
      "inputs": [
        {
          "internalType": "address",
          "name": "spender",
          "type": "address"
        },
        {
          "internalType": "uint256",
          "name": "value",
          "type": "uint256"
        }
      ],
      "name": "approve",
      "outputs": [
        {
          "internalType": "bool",
          "name": "",
          "type": "bool"
        }
      ],
      "stateMutability": "nonpayable",
      "type": "function"
    },
    {
      "inputs": [],
      "name": "backendAddress",
      "outputs": [
        {
          "internalType": "address",
          "name": "",
          "type": "address"
        }
      ],
      "stateMutability": "view",
      "type": "function"
    },
    {
      "inputs": [
        {
          "internalType": "address",
          "name": "account",
          "type": "address"
        }
      ],
      "name": "balanceOf",
      "outputs": [
        {
          "internalType": "uint256",
          "name": "",
          "type": "uint256"
        }
      ],
      "stateMutability": "view",
      "type": "function"
    },
    {
      "inputs": [
        {
          "internalType": "uint256",
          "name": "amount",
          "type": "uint256"
        }
      ],
      "name": "burn",
      "outputs": [],
      "stateMutability": "nonpayable",
      "type": "function"
    },
    {
      "inputs": [
        {
          "internalType": "uint256",
          "name": "distributionId",
          "type": "uint256"
        },
        {
          "internalType": "uint256",
          "name": "balanceAtDistribution",
          "type": "uint256"
        },
        {
          "internalType": "bytes",
          "name": "signature",
          "type": "bytes"
        }
      ],
      "name": "claimProfit",
      "outputs": [],
      "stateMutability": "nonpayable",
      "type": "function"
    },
    {
      "inputs": [],
      "name": "decimals",
      "outputs": [
        {
          "internalType": "uint8",
          "name": "",
          "type": "uint8"
        }
      ],
      "stateMutability": "view",
      "type": "function"
    },
    {
      "inputs": [
        {
          "internalType": "uint256",
          "name": "profitAmount",
          "type": "uint256"
        }
      ],
      "name": "distributeProfit",
      "outputs": [],
      "stateMutability": "nonpayable",
      "type": "function"
    },
    {
      "inputs": [
        {
          "internalType": "uint256",
          "name": "amount",
          "type": "uint256"
        }
      ],
      "name": "generateTokensForRealEstatePurchase",
      "outputs": [],
      "stateMutability": "nonpayable",
      "type": "function"
    },
    {
      "inputs": [
        {
          "internalType": "uint256",
          "name": "distributionId",
          "type": "uint256"
        }
      ],
      "name": "getDistribution",
      "outputs": [
        {
          "components": [
            {
              "internalType": "uint256",
              "name": "id",
              "type": "uint256"
            },
            {
              "internalType": "uint256",
              "name": "totalAmount",
              "type": "uint256"
            },
            {
              "internalType": "uint256",
              "name": "distributionDate",
              "type": "uint256"
            },
            {
              "internalType": "uint256",
              "name": "distributionBlock",
              "type": "uint256"
            },
            {
              "internalType": "uint256",
              "name": "tokensExcludingOwner",
              "type": "uint256"
            }
          ],
          "internalType": "struct LandLordToken.ProfitDistributionView",
          "name": "",
          "type": "tuple"
        }
      ],
      "stateMutability": "view",
      "type": "function"
    },
    {
      "inputs": [
        {
          "internalType": "address",
          "name": "user",
          "type": "address"
        }
      ],
      "name": "getUnclaimedDistributions",
      "outputs": [
        {
          "components": [
            {
              "internalType": "uint256",
              "name": "id",
              "type": "uint256"
            },
            {
              "internalType": "uint256",
              "name": "totalAmount",
              "type": "uint256"
            },
            {
              "internalType": "uint256",
              "name": "distributionDate",
              "type": "uint256"
            },
            {
              "internalType": "uint256",
              "name": "distributionBlock",
              "type": "uint256"
            },
            {
              "internalType": "uint256",
              "name": "tokensExcludingOwner",
              "type": "uint256"
            }
          ],
          "internalType": "struct LandLordToken.ProfitDistributionView[]",
          "name": "unclaimedDistributionsArray",
          "type": "tuple[]"
        }
      ],
      "stateMutability": "view",
      "type": "function"
    },
    {
      "inputs": [
        {
          "internalType": "uint256",
          "name": "distributionId",
          "type": "uint256"
        },
        {
          "internalType": "address",
          "name": "user",
          "type": "address"
        }
      ],
      "name": "hasClaimed",
      "outputs": [
        {
          "internalType": "bool",
          "name": "",
          "type": "bool"
        }
      ],
      "stateMutability": "view",
      "type": "function"
    },
    {
      "inputs": [],
      "name": "name",
      "outputs": [
        {
          "internalType": "string",
          "name": "",
          "type": "string"
        }
      ],
      "stateMutability": "view",
      "type": "function"
    },
    {
      "inputs": [],
      "name": "owner",
      "outputs": [
        {
          "internalType": "address",
          "name": "",
          "type": "address"
        }
      ],
      "stateMutability": "view",
      "type": "function"
    },
    {
      "inputs": [],
      "name": "renounceOwnership",
      "outputs": [],
      "stateMutability": "nonpayable",
      "type": "function"
    },
    {
      "inputs": [
        {
          "internalType": "address",
          "name": "newBackend",
          "type": "address"
        }
      ],
      "name": "setBackendAddress",
      "outputs": [],
      "stateMutability": "nonpayable",
      "type": "function"
    },
    {
      "inputs": [],
      "name": "symbol",
      "outputs": [
        {
          "internalType": "string",
          "name": "",
          "type": "string"
        }
      ],
      "stateMutability": "view",
      "type": "function"
    },
    {
      "inputs": [],
      "name": "totalSupply",
      "outputs": [
        {
          "internalType": "uint256",
          "name": "",
          "type": "uint256"
        }
      ],
      "stateMutability": "view",
      "type": "function"
    },
    {
      "inputs": [
        {
          "internalType": "address",
          "name": "to",
          "type": "address"
        },
        {
          "internalType": "uint256",
          "name": "value",
          "type": "uint256"
        }
      ],
      "name": "transfer",
      "outputs": [
        {
          "internalType": "bool",
          "name": "",
          "type": "bool"
        }
      ],
      "stateMutability": "nonpayable",
      "type": "function"
    },
    {
      "inputs": [
        {
          "internalType": "address",
          "name": "from",
          "type": "address"
        },
        {
          "internalType": "address",
          "name": "to",
          "type": "address"
        },
        {
          "internalType": "uint256",
          "name": "value",
          "type": "uint256"
        }
      ],
      "name": "transferFrom",
      "outputs": [
        {
          "internalType": "bool",
          "name": "",
          "type": "bool"
        }
      ],
      "stateMutability": "nonpayable",
      "type": "function"
    },
    {
      "inputs": [
        {
          "internalType": "address",
          "name": "newOwner",
          "type": "address"
        }
      ],
      "name": "transferOwnership",
      "outputs": [],
      "stateMutability": "nonpayable",
      "type": "function"
    }
  ],
  "bytecode": "0x608060405234801561001057600080fd5b50336040518060400160405280600881526020017f4c616e644c6f72640000000000000000000000000000000000000000000000008152506040518060400160405280600381526020017f4c4e440000000000000000000000000000000000000000000000000000000000815250816003908161008d9190610761565b50806004908161009d9190610761565b505050600073ffffffffffffffffffffffffffffffffffffffff168173ffffffffffffffffffffffffffffffffffffffff16036101125760006040517f1e4fbdf70000000000000000000000000000000000000000000000000000000081526004016101099190610874565b60405180910390fd5b6101218161019e60201b60201c565b506001600681905550610158336012600a61013c91906109fe565b655af3107a400061014d9190610a49565b61026460201b60201c565b33600860006101000a81548173ffffffffffffffffffffffffffffffffffffffff021916908373ffffffffffffffffffffffffffffffffffffffff160217905550610b20565b6000600560009054906101000a900473ffffffffffffffffffffffffffffffffffffffff16905081600560006101000a81548173ffffffffffffffffffffffffffffffffffffffff021916908373ffffffffffffffffffffffffffffffffffffffff1602179055508173ffffffffffffffffffffffffffffffffffffffff168173ffffffffffffffffffffffffffffffffffffffff167f8be0079c531659141344cd1fd0a4f28419497f9722a3daafe3b4186f6b6457e060405160405180910390a35050565b600073ffffffffffffffffffffffffffffffffffffffff168273ffffffffffffffffffffffffffffffffffffffff16036102d65760006040517fec442f050000000000000000000000000000000000000000000000000000000081526004016102cd9190610874565b60405180910390fd5b6102e8600083836102ec60201b60201c565b5050565b600073ffffffffffffffffffffffffffffffffffffffff168373ffffffffffffffffffffffffffffffffffffffff160361033e5780600260008282546103329190610a8b565b92505081905550610411565b60008060008573ffffffffffffffffffffffffffffffffffffffff1673ffffffffffffffffffffffffffffffffffffffff168152602001908152602001600020549050818110156103ca578381836040517fe450d38c0000000000000000000000000000000000000000000000000000000081526004016103c193929190610ace565b60405180910390fd5b8181036000808673ffffffffffffffffffffffffffffffffffffffff1673ffffffffffffffffffffffffffffffffffffffff16815260200190815260200160002081905550505b600073ffffffffffffffffffffffffffffffffffffffff168273ffffffffffffffffffffffffffffffffffffffff160361045a57806002600082825403925050819055506104a7565b806000808473ffffffffffffffffffffffffffffffffffffffff1673ffffffffffffffffffffffffffffffffffffffff168152602001908152602001600020600082825401925050819055505b8173ffffffffffffffffffffffffffffffffffffffff168373ffffffffffffffffffffffffffffffffffffffff167fddf252ad1be2c89b69c2b068fc378daa952ba7f163c4a11628f55a4df523b3ef836040516105049190610b05565b60405180910390a3505050565b600081519050919050565b7f4e487b7100000000000000000000000000000000000000000000000000000000600052604160045260246000fd5b7f4e487b7100000000000000000000000000000000000000000000000000000000600052602260045260246000fd5b6000600282049050600182168061059257607f821691505b6020821081036105a5576105a461054b565b5b50919050565b60008190508160005260206000209050919050565b60006020601f8301049050919050565b600082821b905092915050565b60006008830261060d7fffffffffffffffffffffffffffffffffffffffffffffffffffffffffffffffff826105d0565b61061786836105d0565b95508019841693508086168417925050509392505050565b6000819050919050565b6000819050919050565b600061065e6106596106548461062f565b610639565b61062f565b9050919050565b6000819050919050565b61067883610643565b61068c61068482610665565b8484546105dd565b825550505050565b600090565b6106a1610694565b6106ac81848461066f565b505050565b5b818110156106d0576106c5600082610699565b6001810190506106b2565b5050565b601f821115610715576106e6816105ab565b6106ef846105c0565b810160208510156106fe578190505b61071261070a856105c0565b8301826106b1565b50505b505050565b600082821c905092915050565b60006107386000198460080261071a565b1980831691505092915050565b60006107518383610727565b9150826002028217905092915050565b61076a82610511565b67ffffffffffffffff8111156107835761078261051c565b5b61078d825461057a565b6107988282856106d4565b600060209050601f8311600181146107cb57600084156107b9578287015190505b6107c38582610745565b86555061082b565b601f1984166107d9866105ab565b60005b82811015610801578489015182556001820191506020850194506020810190506107dc565b8683101561081e578489015161081a601f891682610727565b8355505b6001600288020188555050505b505050505050565b600073ffffffffffffffffffffffffffffffffffffffff82169050919050565b600061085e82610833565b9050919050565b61086e81610853565b82525050565b60006020820190506108896000830184610865565b92915050565b7f4e487b7100000000000000000000000000000000000000000000000000000000600052601160045260246000fd5b60008160011c9050919050565b6000808291508390505b6001851115610915578086048111156108f1576108f061088f565b5b60018516156109005780820291505b808102905061090e856108be565b94506108d5565b94509492505050565b60008261092e57600190506109ea565b8161093c57600090506109ea565b8160018114610952576002811461095c5761098b565b60019150506109ea565b60ff84111561096e5761096d61088f565b5b8360020a9150848211156109855761098461088f565b5b506109ea565b5060208310610133831016604e8410600b84101617156109c05782820a9050838111156109bb576109ba61088f565b5b6109ea565b6109cd84848460016108cb565b925090508184048111156109e4576109e361088f565b5b81810290505b9392505050565b600060ff82169050919050565b6000610a098261062f565b9150610a14836109f1565b9250610a417fffffffffffffffffffffffffffffffffffffffffffffffffffffffffffffffff848461091e565b905092915050565b6000610a548261062f565b9150610a5f8361062f565b9250828202610a6d8161062f565b91508282048414831517610a8457610a8361088f565b5b5092915050565b6000610a968261062f565b9150610aa18361062f565b9250828201905080821115610ab957610ab861088f565b5b92915050565b610ac88161062f565b82525050565b6000606082019050610ae36000830186610865565b610af06020830185610abf565b610afd6040830184610abf565b949350505050565b6000602082019050610b1a6000830184610abf565b92915050565b612c7580610b2f6000396000f3fe608060405234801561001057600080fd5b50600436106101375760003560e01c806342966c68116100b85780638da5cb5b1161007c5780638da5cb5b1461034e57806395d89b411461036c578063a9059cbb1461038a578063d36dfac8146103ba578063dd62ed3e146103d6578063f2fde38b1461040657610137565b806342966c68146102985780634e381eac146102b457806370a08231146102e4578063715018a614610314578063873f6f9e1461031e57610137565b806318160ddd116100ff57806318160ddd146101e057806321f8ba22146101fe57806323b872dd1461021a578063313ce5671461024a5780633b345a871461026857610137565b8063052196e41461013c57806306fdde0314610158578063095ea7b3146101765780630d72d57f146101a65780631815ce7d146101c4575b600080fd5b61015660048036038101906101519190611e84565b610422565b005b610160610783565b60405161016d9190611f72565b60405180910390f35b610190600480360381019061018b9190611ff2565b610815565b60405161019d919061204d565b60405180910390f35b6101ae610838565b6040516101bb9190612077565b60405180910390f35b6101de60048036038101906101d99190612092565b61085e565b005b6101e8610919565b6040516101f591906120ce565b60405180910390f35b610218600480360381019061021391906120e9565b610923565b005b610234600480360381019061022f9190612116565b61099b565b604051610241919061204d565b60405180910390f35b6102526109ca565b60405161025f9190612185565b60405180910390f35b610282600480360381019061027d91906120e9565b6109d3565b60405161028f9190612217565b60405180910390f35b6102b260048036038101906102ad91906120e9565b610a87565b005b6102ce60048036038101906102c99190612092565b610a94565b6040516102db9190612349565b60405180910390f35b6102fe60048036038101906102f99190612092565b610d4b565b60405161030b91906120ce565b60405180910390f35b61031c610d93565b005b6103386004803603810190610333919061236b565b610da7565b604051610345919061204d565b60405180910390f35b610356610e6e565b6040516103639190612077565b60405180910390f35b610374610e98565b6040516103819190611f72565b60405180910390f35b6103a4600480360381019061039f9190611ff2565b610f2a565b6040516103b1919061204d565b60405180910390f35b6103d460048036038101906103cf91906120e9565b610f4d565b005b6103f060048036038101906103eb91906123ab565b611098565b6040516103fd91906120ce565b60405180910390f35b610420600480360381019061041b9190612092565b61111f565b005b61042a6111a5565b6007805490508310610471576040517f08c379a000000000000000000000000000000000000000000000000000000000815260040161046890612437565b60405180910390fd5b60006007848154811061048757610486612457565b5b906000526020600020906005020190508060040160003373ffffffffffffffffffffffffffffffffffffffff1673ffffffffffffffffffffffffffffffffffffffff16815260200190815260200160002060009054906101000a900460ff1615610526576040517f08c379a000000000000000000000000000000000000000000000000000000000815260040161051d906124f8565b60405180910390fd5b61052e610e6e565b73ffffffffffffffffffffffffffffffffffffffff163373ffffffffffffffffffffffffffffffffffffffff160361059b576040517f08c379a000000000000000000000000000000000000000000000000000000000815260040161059290612564565b60405180910390fd5b60003385856040516020016105b2939291906125ed565b6040516020818303038152906040528051906020012090506000816040516020016105dd91906126ac565b604051602081830303815290604052805190602001209050600061060182866111eb565b9050600860009054906101000a900473ffffffffffffffffffffffffffffffffffffffff1673ffffffffffffffffffffffffffffffffffffffff168173ffffffffffffffffffffffffffffffffffffffff1614610693576040517f08c379a000000000000000000000000000000000000000000000000000000000815260040161068a9061271e565b60405180910390fd5b60018460040160003373ffffffffffffffffffffffffffffffffffffffff1673ffffffffffffffffffffffffffffffffffffffff16815260200190815260200160002060006101000a81548160ff02191690831515021790555060008460030154878660000154610704919061276d565b61070e91906127de565b905061072261071b610e6e565b3383611217565b873373ffffffffffffffffffffffffffffffffffffffff167fb48b1066ec076dc237b4b5f2e666c47ea9b5fe3a601a55504cb70f2caa254eee8360405161076991906120ce565b60405180910390a3505050505061077e61130b565b505050565b6060600380546107929061283e565b80601f01602080910402602001604051908101604052809291908181526020018280546107be9061283e565b801561080b5780601f106107e05761010080835404028352916020019161080b565b820191906000526020600020905b8154815290600101906020018083116107ee57829003601f168201915b5050505050905090565b600080610820611315565b905061082d81858561131d565b600191505092915050565b600860009054906101000a900473ffffffffffffffffffffffffffffffffffffffff1681565b61086661132f565b600073ffffffffffffffffffffffffffffffffffffffff168173ffffffffffffffffffffffffffffffffffffffff16036108d5576040517f08c379a00000000000000000000000000000000000000000000000000000000081526004016108cc906128bb565b60405180910390fd5b80600860006101000a81548173ffffffffffffffffffffffffffffffffffffffff021916908373ffffffffffffffffffffffffffffffffffffffff16021790555050565b6000600254905090565b61092b61132f565b6000600a610937610919565b61094191906127de565b905080821115610986576040517f08c379a000000000000000000000000000000000000000000000000000000000815260040161097d9061294d565b60405180910390fd5b610997610991610e6e565b836113b6565b5050565b6000806109a6611315565b90506109b3858285611438565b6109be858585611217565b60019150509392505050565b60006012905090565b6109db611cc5565b6007805490508210610a22576040517f08c379a0000000000000000000000000000000000000000000000000000000008152600401610a1990612437565b60405180910390fd5b600060078381548110610a3857610a37612457565b5b906000526020600020906005020190506040518060a001604052808481526020018260000154815260200182600101548152602001826002015481526020018260030154815250915050919050565b610a9133826114cd565b50565b6060610a9e610e6e565b73ffffffffffffffffffffffffffffffffffffffff168273ffffffffffffffffffffffffffffffffffffffff1603610b2c57600067ffffffffffffffff811115610aeb57610aea611d59565b5b604051908082528060200260200182016040528015610b2457816020015b610b11611cc5565b815260200190600190039081610b095790505b509050610d46565b600060078054905090506000805b82811015610bd25760078181548110610b5657610b55612457565b5b906000526020600020906005020160040160008673ffffffffffffffffffffffffffffffffffffffff1673ffffffffffffffffffffffffffffffffffffffff16815260200190815260200160002060009054906101000a900460ff16610bc5578180610bc19061296d565b9250505b8080600101915050610b3a565b508067ffffffffffffffff811115610bed57610bec611d59565b5b604051908082528060200260200182016040528015610c2657816020015b610c13611cc5565b815260200190600190039081610c0b5790505b5092506000805b83811015610d415760078181548110610c4957610c48612457565b5b906000526020600020906005020160040160008773ffffffffffffffffffffffffffffffffffffffff1673ffffffffffffffffffffffffffffffffffffffff16815260200190815260200160002060009054906101000a900460ff16610d3457600060078281548110610cbf57610cbe612457565b5b906000526020600020906005020190506040518060a001604052808381526020018260000154815260200182600101548152602001826002015481526020018260030154815250868481518110610d1957610d18612457565b5b60200260200101819052508280610d2f9061296d565b935050505b8080600101915050610c2d565b505050505b919050565b60008060008373ffffffffffffffffffffffffffffffffffffffff1673ffffffffffffffffffffffffffffffffffffffff168152602001908152602001600020549050919050565b610d9b61132f565b610da5600061154f565b565b60006007805490508310610df0576040517f08c379a0000000000000000000000000000000000000000000000000000000008152600401610de790612437565b60405180910390fd5b600060078481548110610e0657610e05612457565b5b906000526020600020906005020190508060040160008473ffffffffffffffffffffffffffffffffffffffff1673ffffffffffffffffffffffffffffffffffffffff16815260200190815260200160002060009054906101000a900460ff1691505092915050565b6000600560009054906101000a900473ffffffffffffffffffffffffffffffffffffffff16905090565b606060048054610ea79061283e565b80601f0160208091040260200160405190810160405280929190818152602001828054610ed39061283e565b8015610f205780601f10610ef557610100808354040283529160200191610f20565b820191906000526020600020905b815481529060010190602001808311610f0357829003601f168201915b5050505050905090565b600080610f35611315565b9050610f42818585611217565b600191505092915050565b610f5561132f565b60008111610f98576040517f08c379a0000000000000000000000000000000000000000000000000000000008152600401610f8f90612a27565b60405180910390fd5b600060078054905090506000600760018160018154018082558091505003906000526020600020906005020190508281600001819055504281600101819055504381600201819055506000610ff3610fee610e6e565b610d4b565b90506000610fff610919565b9050818111611043576040517f08c379a000000000000000000000000000000000000000000000000000000000815260040161103a90612ab9565b60405180910390fd5b818161104f9190612ad9565b8360030181905550837f35a0431ae8ac3e583720a9e25576a99b5b4bb2cb375a867047eef1e6ea81b26f8642604051611089929190612b0d565b60405180910390a25050505050565b6000600160008473ffffffffffffffffffffffffffffffffffffffff1673ffffffffffffffffffffffffffffffffffffffff16815260200190815260200160002060008373ffffffffffffffffffffffffffffffffffffffff1673ffffffffffffffffffffffffffffffffffffffff16815260200190815260200160002054905092915050565b61112761132f565b600073ffffffffffffffffffffffffffffffffffffffff168173ffffffffffffffffffffffffffffffffffffffff16036111995760006040517f1e4fbdf70000000000000000000000000000000000000000000000000000000081526004016111909190612077565b60405180910390fd5b6111a28161154f565b50565b6002600654036111e1576040517f3ee5aeb500000000000000000000000000000000000000000000000000000000815260040160405180910390fd5b6002600681905550565b6000806000806111fb8686611615565b92509250925061120b8282611671565b82935050505092915050565b600073ffffffffffffffffffffffffffffffffffffffff168373ffffffffffffffffffffffffffffffffffffffff16036112895760006040517f96c6fd1e0000000000000000000000000000000000000000000000000000000081526004016112809190612077565b60405180910390fd5b600073ffffffffffffffffffffffffffffffffffffffff168273ffffffffffffffffffffffffffffffffffffffff16036112fb5760006040517fec442f050000000000000000000000000000000000000000000000000000000081526004016112f29190612077565b60405180910390fd5b6113068383836117d5565b505050565b6001600681905550565b600033905090565b61132a83838360016119fa565b505050565b611337611315565b73ffffffffffffffffffffffffffffffffffffffff16611355610e6e565b73ffffffffffffffffffffffffffffffffffffffff16146113b457611378611315565b6040517f118cdaa70000000000000000000000000000000000000000000000000000000081526004016113ab9190612077565b60405180910390fd5b565b600073ffffffffffffffffffffffffffffffffffffffff168273ffffffffffffffffffffffffffffffffffffffff16036114285760006040517fec442f0500000000000000000000000000000000000000000000000000000000815260040161141f9190612077565b60405180910390fd5b611434600083836117d5565b5050565b60006114448484611098565b90507fffffffffffffffffffffffffffffffffffffffffffffffffffffffffffffffff8110156114c757818110156114b7578281836040517ffb8f41b20000000000000000000000000000000000000000000000000000000081526004016114ae93929190612b36565b60405180910390fd5b6114c6848484840360006119fa565b5b50505050565b600073ffffffffffffffffffffffffffffffffffffffff168273ffffffffffffffffffffffffffffffffffffffff160361153f5760006040517f96c6fd1e0000000000000000000000000000000000000000000000000000000081526004016115369190612077565b60405180910390fd5b61154b826000836117d5565b5050565b6000600560009054906101000a900473ffffffffffffffffffffffffffffffffffffffff16905081600560006101000a81548173ffffffffffffffffffffffffffffffffffffffff021916908373ffffffffffffffffffffffffffffffffffffffff1602179055508173ffffffffffffffffffffffffffffffffffffffff168173ffffffffffffffffffffffffffffffffffffffff167f8be0079c531659141344cd1fd0a4f28419497f9722a3daafe3b4186f6b6457e060405160405180910390a35050565b6000806000604184510361165a5760008060006020870151925060408701519150606087015160001a905061164c88828585611bd1565b95509550955050505061166a565b60006002855160001b9250925092505b9250925092565b6000600381111561168557611684612b6d565b5b82600381111561169857611697612b6d565b5b03156117d157600160038111156116b2576116b1612b6d565b5b8260038111156116c5576116c4612b6d565b5b036116fc576040517ff645eedf00000000000000000000000000000000000000000000000000000000815260040160405180910390fd5b600260038111156117105761170f612b6d565b5b82600381111561172357611722612b6d565b5b03611768578060001c6040517ffce698f700000000000000000000000000000000000000000000000000000000815260040161175f91906120ce565b60405180910390fd5b60038081111561177b5761177a612b6d565b5b82600381111561178e5761178d612b6d565b5b036117d057806040517fd78bce0c0000000000000000000000000000000000000000000000000000000081526004016117c79190612bab565b60405180910390fd5b5b5050565b600073ffffffffffffffffffffffffffffffffffffffff168373ffffffffffffffffffffffffffffffffffffffff160361182757806002600082825461181b9190612bc6565b925050819055506118fa565b60008060008573ffffffffffffffffffffffffffffffffffffffff1673ffffffffffffffffffffffffffffffffffffffff168152602001908152602001600020549050818110156118b3578381836040517fe450d38c0000000000000000000000000000000000000000000000000000000081526004016118aa93929190612b36565b60405180910390fd5b8181036000808673ffffffffffffffffffffffffffffffffffffffff1673ffffffffffffffffffffffffffffffffffffffff16815260200190815260200160002081905550505b600073ffffffffffffffffffffffffffffffffffffffff168273ffffffffffffffffffffffffffffffffffffffff16036119435780600260008282540392505081905550611990565b806000808473ffffffffffffffffffffffffffffffffffffffff1673ffffffffffffffffffffffffffffffffffffffff168152602001908152602001600020600082825401925050819055505b8173ffffffffffffffffffffffffffffffffffffffff168373ffffffffffffffffffffffffffffffffffffffff167fddf252ad1be2c89b69c2b068fc378daa952ba7f163c4a11628f55a4df523b3ef836040516119ed91906120ce565b60405180910390a3505050565b600073ffffffffffffffffffffffffffffffffffffffff168473ffffffffffffffffffffffffffffffffffffffff1603611a6c5760006040517fe602df05000000000000000000000000000000000000000000000000000000008152600401611a639190612077565b60405180910390fd5b600073ffffffffffffffffffffffffffffffffffffffff168373ffffffffffffffffffffffffffffffffffffffff1603611ade5760006040517f94280d62000000000000000000000000000000000000000000000000000000008152600401611ad59190612077565b60405180910390fd5b81600160008673ffffffffffffffffffffffffffffffffffffffff1673ffffffffffffffffffffffffffffffffffffffff16815260200190815260200160002060008573ffffffffffffffffffffffffffffffffffffffff1673ffffffffffffffffffffffffffffffffffffffff168152602001908152602001600020819055508015611bcb578273ffffffffffffffffffffffffffffffffffffffff168473ffffffffffffffffffffffffffffffffffffffff167f8c5be1e5ebec7d5bd14f71427d1e84f3dd0314c0f7b2291e5b200ac8c7c3b92584604051611bc291906120ce565b60405180910390a35b50505050565b60008060007f7fffffffffffffffffffffffffffffff5d576e7357a4501ddfe92f46681b20a08460001c1115611c11576000600385925092509250611cbb565b600060018888888860405160008152602001604052604051611c369493929190612bfa565b6020604051602081039080840390855afa158015611c58573d6000803e3d6000fd5b505050602060405103519050600073ffffffffffffffffffffffffffffffffffffffff168173ffffffffffffffffffffffffffffffffffffffff1603611cac57600060016000801b93509350935050611cbb565b8060008060001b935093509350505b9450945094915050565b6040518060a0016040528060008152602001600081526020016000815260200160008152602001600081525090565b6000604051905090565b600080fd5b600080fd5b6000819050919050565b611d1b81611d08565b8114611d2657600080fd5b50565b600081359050611d3881611d12565b92915050565b600080fd5b600080fd5b6000601f19601f8301169050919050565b7f4e487b7100000000000000000000000000000000000000000000000000000000600052604160045260246000fd5b611d9182611d48565b810181811067ffffffffffffffff82111715611db057611daf611d59565b5b80604052505050565b6000611dc3611cf4565b9050611dcf8282611d88565b919050565b600067ffffffffffffffff821115611def57611dee611d59565b5b611df882611d48565b9050602081019050919050565b82818337600083830152505050565b6000611e27611e2284611dd4565b611db9565b905082815260208101848484011115611e4357611e42611d43565b5b611e4e848285611e05565b509392505050565b600082601f830112611e6b57611e6a611d3e565b5b8135611e7b848260208601611e14565b91505092915050565b600080600060608486031215611e9d57611e9c611cfe565b5b6000611eab86828701611d29565b9350506020611ebc86828701611d29565b925050604084013567ffffffffffffffff811115611edd57611edc611d03565b5b611ee986828701611e56565b9150509250925092565b600081519050919050565b600082825260208201905092915050565b60005b83811015611f2d578082015181840152602081019050611f12565b60008484015250505050565b6000611f4482611ef3565b611f4e8185611efe565b9350611f5e818560208601611f0f565b611f6781611d48565b840191505092915050565b60006020820190508181036000830152611f8c8184611f39565b905092915050565b600073ffffffffffffffffffffffffffffffffffffffff82169050919050565b6000611fbf82611f94565b9050919050565b611fcf81611fb4565b8114611fda57600080fd5b50565b600081359050611fec81611fc6565b92915050565b6000806040838503121561200957612008611cfe565b5b600061201785828601611fdd565b925050602061202885828601611d29565b9150509250929050565b60008115159050919050565b61204781612032565b82525050565b6000602082019050612062600083018461203e565b92915050565b61207181611fb4565b82525050565b600060208201905061208c6000830184612068565b92915050565b6000602082840312156120a8576120a7611cfe565b5b60006120b684828501611fdd565b91505092915050565b6120c881611d08565b82525050565b60006020820190506120e360008301846120bf565b92915050565b6000602082840312156120ff576120fe611cfe565b5b600061210d84828501611d29565b91505092915050565b60008060006060848603121561212f5761212e611cfe565b5b600061213d86828701611fdd565b935050602061214e86828701611fdd565b925050604061215f86828701611d29565b9150509250925092565b600060ff82169050919050565b61217f81612169565b82525050565b600060208201905061219a6000830184612176565b92915050565b6121a981611d08565b82525050565b60a0820160008201516121c560008501826121a0565b5060208201516121d860208501826121a0565b5060408201516121eb60408501826121a0565b5060608201516121fe60608501826121a0565b50608082015161221160808501826121a0565b50505050565b600060a08201905061222c60008301846121af565b92915050565b600081519050919050565b600082825260208201905092915050565b6000819050602082019050919050565b60a08201600082015161227460008501826121a0565b50602082015161228760208501826121a0565b50604082015161229a60408501826121a0565b5060608201516122ad60608501826121a0565b5060808201516122c060808501826121a0565b50505050565b60006122d2838361225e565b60a08301905092915050565b6000602082019050919050565b60006122f682612232565b612300818561223d565b935061230b8361224e565b8060005b8381101561233c57815161232388826122c6565b975061232e836122de565b92505060018101905061230f565b5085935050505092915050565b6000602082019050818103600083015261236381846122eb565b905092915050565b6000806040838503121561238257612381611cfe565b5b600061239085828601611d29565b92505060206123a185828601611fdd565b9150509250929050565b600080604083850312156123c2576123c1611cfe565b5b60006123d085828601611fdd565b92505060206123e185828601611fdd565b9150509250929050565b7f446973747269627574696f6e20646f6573206e6f742065786973740000000000600082015250565b6000612421601b83611efe565b915061242c826123eb565b602082019050919050565b6000602082019050818103600083015261245081612414565b9050919050565b7f4e487b7100000000000000000000000000000000000000000000000000000000600052603260045260246000fd5b7f416c726561647920636c61696d656420666f722074686973206469737472696260008201527f7574696f6e000000000000000000000000000000000000000000000000000000602082015250565b60006124e2602583611efe565b91506124ed82612486565b604082019050919050565b60006020820190508181036000830152612511816124d5565b9050919050565b7f4f776e65722063616e6e6f7420636c61696d0000000000000000000000000000600082015250565b600061254e601283611efe565b915061255982612518565b602082019050919050565b6000602082019050818103600083015261257d81612541565b9050919050565b60008160601b9050919050565b600061259c82612584565b9050919050565b60006125ae82612591565b9050919050565b6125c66125c182611fb4565b6125a3565b82525050565b6000819050919050565b6125e76125e282611d08565b6125cc565b82525050565b60006125f982866125b5565b60148201915061260982856125d6565b60208201915061261982846125d6565b602082019150819050949350505050565b600081905092915050565b7f19457468657265756d205369676e6564204d6573736167653a0a333200000000600082015250565b600061266b601c8361262a565b915061267682612635565b601c82019050919050565b6000819050919050565b6000819050919050565b6126a66126a182612681565b61268b565b82525050565b60006126b78261265e565b91506126c38284612695565b60208201915081905092915050565b7f496e76616c6964206261636b656e64207369676e617475726500000000000000600082015250565b6000612708601983611efe565b9150612713826126d2565b602082019050919050565b60006020820190508181036000830152612737816126fb565b9050919050565b7f4e487b7100000000000000000000000000000000000000000000000000000000600052601160045260246000fd5b600061277882611d08565b915061278383611d08565b925082820261279181611d08565b915082820484148315176127a8576127a761273e565b5b5092915050565b7f4e487b7100000000000000000000000000000000000000000000000000000000600052601260045260246000fd5b60006127e982611d08565b91506127f483611d08565b925082612804576128036127af565b5b828204905092915050565b7f4e487b7100000000000000000000000000000000000000000000000000000000600052602260045260246000fd5b6000600282049050600182168061285657607f821691505b6020821081036128695761286861280f565b5b50919050565b7f496e76616c6964206261636b656e642061646472657373000000000000000000600082015250565b60006128a5601783611efe565b91506128b08261286f565b602082019050919050565b600060208201905081810360008301526128d481612898565b9050919050565b7f4d696e74696e6720616d6f756e74206578636565647320313025206f6620746f60008201527f74616c20737570706c7900000000000000000000000000000000000000000000602082015250565b6000612937602a83611efe565b9150612942826128db565b604082019050919050565b600060208201905081810360008301526129668161292a565b9050919050565b600061297882611d08565b91507fffffffffffffffffffffffffffffffffffffffffffffffffffffffffffffffff82036129aa576129a961273e565b5b600182019050919050565b7f4e756d626572206f6620546f6b656e73206d757374206265206269676765722060008201527f7468616e20300000000000000000000000000000000000000000000000000000602082015250565b6000612a11602683611efe565b9150612a1c826129b5565b604082019050919050565b60006020820190508181036000830152612a4081612a04565b9050919050565b7f4e6f20656c696769626c6520686f6c6465727320666f7220646973747269627560008201527f74696f6e00000000000000000000000000000000000000000000000000000000602082015250565b6000612aa3602483611efe565b9150612aae82612a47565b604082019050919050565b60006020820190508181036000830152612ad281612a96565b9050919050565b6000612ae482611d08565b9150612aef83611d08565b9250828203905081811115612b0757612b0661273e565b5b92915050565b6000604082019050612b2260008301856120bf565b612b2f60208301846120bf565b9392505050565b6000606082019050612b4b6000830186612068565b612b5860208301856120bf565b612b6560408301846120bf565b949350505050565b7f4e487b7100000000000000000000000000000000000000000000000000000000600052602160045260246000fd5b612ba581612681565b82525050565b6000602082019050612bc06000830184612b9c565b92915050565b6000612bd182611d08565b9150612bdc83611d08565b9250828201905080821115612bf457612bf361273e565b5b92915050565b6000608082019050612c0f6000830187612b9c565b612c1c6020830186612176565b612c296040830185612b9c565b612c366060830184612b9c565b9594505050505056fea26469706673582212204ab9d6c18bd77a307c312f418e39ac1b3de3016326e7ee3782416a99c877eb4664736f6c634300081c0033",
  "linkReferences": {},
  "deployedLinkReferences": {}
}